{
  "contractName": "Ownable",
  "abi": [
    {
      "inputs": [],
      "stateMutability": "nonpayable",
      "type": "constructor"
    },
    {
      "inputs": [],
      "name": "isOwner",
      "outputs": [
        {
          "internalType": "bool",
          "name": "",
          "type": "bool"
        }
      ],
      "stateMutability": "view",
      "type": "function"
    }
  ],
  "bytecode": "0x608060405234801561001057600080fd5b50336000806101000a81548173ffffffffffffffffffffffffffffffffffffffff021916908373ffffffffffffffffffffffffffffffffffffffff160217905550610106806100606000396000f3fe6080604052348015600f57600080fd5b506004361060285760003560e01c80638f32d59b14602d575b600080fd5b60336047565b604051603e919060ab565b60405180910390f35b60008060009054906101000a900473ffffffffffffffffffffffffffffffffffffffff1673ffffffffffffffffffffffffffffffffffffffff163373ffffffffffffffffffffffffffffffffffffffff1614905090565b60a58160c4565b82525050565b600060208201905060be6000830184609e565b92915050565b6000811515905091905056fea26469706673582212201ca6f75fb40d894bb8e3bfcd1ec93e64533376917d8f7b0bd2c24b01c04fe26d64736f6c63430008000033",
  "immutableReferences": {},
  "source": "// SPDX-License-Identifier: MIT\npragma solidity ^0.8.0;\n\ncontract Ownable {\n    address payable owner;\n\n    constructor() {\n        owner = payable(address(msg.sender));\n    }\n\n    modifier onlyOwner() {\n        require(isOwner(), \"You are not the owner\");\n        _;\n    }\n\n    function isOwner() public view returns(bool) {\n        return msg.sender == owner;\n    }\n}\n\ncontract PayContract {\n    uint public priceInWei;\n    uint public pricePaid;\n    uint public index;\n    SupplyChain parent;\n\n    constructor(SupplyChain _parent, uint _priceInWei, uint _index) {\n        index = _index;\n        parent = _parent;\n        priceInWei = _priceInWei;\n    }\n\n    receive() external payable {\n        require(pricePaid == 0, \"Item is paid already\");\n        require(msg.value == priceInWei, \"Only full payment allowed\");\n        pricePaid += msg.value;\n        (bool success, ) = address(parent).call{value: msg.value}(abi.encodeWithSignature(\"triggerPayment(uint256)\", index));\n        require(success, \"Failed transaction: was not successful, cancelling\");\n    }\n\n    fallback() external {\n\n    }\n}\n\ncontract SupplyChain is Ownable {\n    event SupplyChainStep(uint index, SupplyChainState step, address payableAddress);\n\n    enum SupplyChainState{Created, Paid, Delivered}\n\n    struct Item {\n        string identifier;\n        uint itemPrice;\n        PayContract payContract;\n        SupplyChainState state;\n    }\n\n    uint itemIndex;\n    mapping(uint => Item) public items;\n\n    function createItem(string memory _identifier, uint _itemPrice) public onlyOwner {\n        PayContract payer = new PayContract(this, _itemPrice, itemIndex);\n        items[itemIndex].payContract = payer;\n        items[itemIndex].identifier = _identifier;\n        items[itemIndex].itemPrice = _itemPrice;\n        items[itemIndex].state = SupplyChainState.Created;\n        emit SupplyChainStep(itemIndex, SupplyChainState.Created, address(payer));\n        itemIndex++;\n    }\n\n    function triggerPayment(uint index) public payable {\n        require(items[index].itemPrice == msg.value, \"Only full payment accepted\");\n        require(items[index].state == SupplyChainState.Created, \"Item is further in the chain\");\n        items[index].state = SupplyChainState.Paid;\n        emit SupplyChainStep(itemIndex, SupplyChainState.Paid, address(items[index].payContract));\n    }\n\n    function triggerDelivery(uint index) public onlyOwner {\n        require(items[index].state == SupplyChainState.Paid, \"Item must be in paid state\");\n        items[index].state = SupplyChainState.Delivered;\n        emit SupplyChainStep(index, SupplyChainState.Delivered, address(items[index].payContract));\n    }\n}\n",
  "sourcePath": "/Users/alexewetumo/Lab/etha/supplychain-rx/eth3/contracts/SupplyChain.sol",
  "compiler": {
    "name": "solc",
    "version": "0.8.0+commit.c7dfd78e.Emscripten.clang"
  },
  "schemaVersion": "3.4.3",
  "updatedAt": "2021-10-03T14:51:37.444Z",
  "devdoc": {
    "kind": "dev",
    "methods": {},
    "version": 1
  },
  "userdoc": {
    "kind": "user",
    "methods": {},
    "version": 1
  }
}