{
  "contractName": "TokenSale",
  "abi": [
    {
      "inputs": [
        {
          "internalType": "contract DappToken",
          "name": "_tokenContract",
          "type": "address"
        },
        {
          "internalType": "uint256",
          "name": "_priceInWei",
          "type": "uint256"
        }
      ],
      "stateMutability": "nonpayable",
      "type": "constructor"
    },
    {
      "anonymous": false,
      "inputs": [
        {
          "indexed": false,
          "internalType": "address",
          "name": "_buyer",
          "type": "address"
        },
        {
          "indexed": false,
          "internalType": "uint256",
          "name": "_amount",
          "type": "uint256"
        }
      ],
      "name": "Sell",
      "type": "event"
    },
    {
      "anonymous": false,
      "inputs": [
        {
          "indexed": false,
          "internalType": "address",
          "name": "_buyer",
          "type": "address"
        },
        {
          "indexed": false,
          "internalType": "uint256",
          "name": "_tokensSize",
          "type": "uint256"
        },
        {
          "indexed": false,
          "internalType": "uint256",
          "name": "_forAmount",
          "type": "uint256"
        }
      ],
      "name": "SoldFor",
      "type": "event"
    },
    {
      "inputs": [],
      "name": "priceInWei",
      "outputs": [
        {
          "internalType": "uint256",
          "name": "",
          "type": "uint256"
        }
      ],
      "stateMutability": "view",
      "type": "function",
      "constant": true
    },
    {
      "inputs": [],
      "name": "tokenContract",
      "outputs": [
        {
          "internalType": "contract DappToken",
          "name": "",
          "type": "address"
        }
      ],
      "stateMutability": "view",
      "type": "function",
      "constant": true
    },
    {
      "inputs": [],
      "name": "tokensSold",
      "outputs": [
        {
          "internalType": "uint256",
          "name": "",
          "type": "uint256"
        }
      ],
      "stateMutability": "view",
      "type": "function",
      "constant": true
    },
    {
      "inputs": [],
      "name": "endSale",
      "outputs": [],
      "stateMutability": "nonpayable",
      "type": "function"
    },
    {
      "inputs": [
        {
          "internalType": "uint256",
          "name": "_numberOfTokens",
          "type": "uint256"
        }
      ],
      "name": "buyTokens",
      "outputs": [],
      "stateMutability": "payable",
      "type": "function",
      "payable": true
    }
  ],
  "bytecode": "0x608060405234801561001057600080fd5b50604051610b31380380610b318339818101604052604081101561003357600080fd5b81019080805190602001909291908051906020019092919050505033600360006101000a81548173ffffffffffffffffffffffffffffffffffffffff021916908373ffffffffffffffffffffffffffffffffffffffff1602179055508060008190555081600260006101000a81548173ffffffffffffffffffffffffffffffffffffffff021916908373ffffffffffffffffffffffffffffffffffffffff1602179055505050610a49806100e86000396000f3fe60806040526004361061004a5760003560e01c80633610724e1461004f578063380d831b1461007d5780633c8da58814610094578063518ab2a8146100bf57806355a373d6146100ea575b600080fd5b61007b6004803603602081101561006557600080fd5b8101908080359060200190929190505050610141565b005b34801561008957600080fd5b50610092610545565b005b3480156100a057600080fd5b506100a961089d565b6040518082815260200191505060405180910390f35b3480156100cb57600080fd5b506100d46108a3565b6040518082815260200191505060405180910390f35b3480156100f657600080fd5b506100ff6108a9565b604051808273ffffffffffffffffffffffffffffffffffffffff1673ffffffffffffffffffffffffffffffffffffffff16815260200191505060405180910390f35b6000610158826000546108cf90919063ffffffff16565b90508034146101b2576040517f08c379a000000000000000000000000000000000000000000000000000000000815260040180806020018281038252602b8152602001806109c8602b913960400191505060405180910390fd5b60003090506000600260009054906101000a900473ffffffffffffffffffffffffffffffffffffffff1673ffffffffffffffffffffffffffffffffffffffff166370a08231836040518263ffffffff1660e01b8152600401808273ffffffffffffffffffffffffffffffffffffffff1673ffffffffffffffffffffffffffffffffffffffff16815260200191505060206040518083038186803b15801561025857600080fd5b505afa15801561026c573d6000803e3d6000fd5b505050506040513d602081101561028257600080fd5b810190808051906020019092919050505090506000841161030b576040517f08c379a000000000000000000000000000000000000000000000000000000000815260040180806020018281038252601b8152602001807f73686f756c642062652067726561746572207468616e207a65726f000000000081525060200191505060405180910390fd5b80841115610364576040517f08c379a000000000000000000000000000000000000000000000000000000000815260040180806020018281038252602b815260200180610956602b913960400191505060405180910390fd5b600260009054906101000a900473ffffffffffffffffffffffffffffffffffffffff1673ffffffffffffffffffffffffffffffffffffffff1663a9059cbb33866040518363ffffffff1660e01b8152600401808373ffffffffffffffffffffffffffffffffffffffff1673ffffffffffffffffffffffffffffffffffffffff16815260200182815260200192505050602060405180830381600087803b15801561040d57600080fd5b505af1158015610421573d6000803e3d6000fd5b505050506040513d602081101561043757600080fd5b810190808051906020019092919050505061045157600080fd5b836001600082825401925050819055507f5e5e995ce3133561afceaa51a9a154d5db228cd7525d34df5185582c18d3df093385604051808373ffffffffffffffffffffffffffffffffffffffff1673ffffffffffffffffffffffffffffffffffffffff1681526020018281526020019250505060405180910390a17fc938e747c59c2793dd721924d7145d12d90328178295a5f7758e72fea451d235338585604051808473ffffffffffffffffffffffffffffffffffffffff1673ffffffffffffffffffffffffffffffffffffffff168152602001838152602001828152602001935050505060405180910390a150505050565b600360009054906101000a900473ffffffffffffffffffffffffffffffffffffffff1673ffffffffffffffffffffffffffffffffffffffff163373ffffffffffffffffffffffffffffffffffffffff16146105eb576040517f08c379a00000000000000000000000000000000000000000000000000000000081526004018080602001828103825260218152602001806109f36021913960400191505060405180910390fd5b60003090506000600260009054906101000a900473ffffffffffffffffffffffffffffffffffffffff1673ffffffffffffffffffffffffffffffffffffffff166370a08231836040518263ffffffff1660e01b8152600401808273ffffffffffffffffffffffffffffffffffffffff1673ffffffffffffffffffffffffffffffffffffffff16815260200191505060206040518083038186803b15801561069157600080fd5b505afa1580156106a5573d6000803e3d6000fd5b505050506040513d60208110156106bb57600080fd5b81019080805190602001909291905050509050600260009054906101000a900473ffffffffffffffffffffffffffffffffffffffff1673ffffffffffffffffffffffffffffffffffffffff166323b872dd30600260009054906101000a900473ffffffffffffffffffffffffffffffffffffffff16846040518463ffffffff1660e01b8152600401808473ffffffffffffffffffffffffffffffffffffffff1673ffffffffffffffffffffffffffffffffffffffff1681526020018373ffffffffffffffffffffffffffffffffffffffff1673ffffffffffffffffffffffffffffffffffffffff1681526020018281526020019350505050602060405180830381600087803b1580156107cd57600080fd5b505af11580156107e1573d6000803e3d6000fd5b505050506040513d60208110156107f757600080fd5b810190808051906020019092919050505061085d576040517f08c379a00000000000000000000000000000000000000000000000000000000081526004018080602001828103825260268152602001806109a26026913960400191505060405180910390fd5b6000600360009054906101000a900473ffffffffffffffffffffffffffffffffffffffff1690508073ffffffffffffffffffffffffffffffffffffffff16ff5b60005481565b60015481565b600260009054906101000a900473ffffffffffffffffffffffffffffffffffffffff1681565b6000808314156108e2576000905061094f565b60008284029050828482816108f357fe5b041461094a576040517f08c379a00000000000000000000000000000000000000000000000000000000081526004018080602001828103825260218152602001806109816021913960400191505060405180910390fd5b809150505b9291505056fe73686f756c642062652077697468696e20617661696c61626c6520746f6b656e732072656d61696e696e67536166654d6174683a206d756c7469706c69636174696f6e206f766572666c6f7773686f756c64207472616e7366657220616c6c20746f6b656e7320746f20636f6e747261637453686f756c64206265207468652073616d6520617320657870656374656420707269636520696e207765696f6e6c79207468652061646d696e2063616e20706572666f726d20616374696f6ea2646970667358221220cc82b24caf969f53a7ac17304d68b308f1b86a3a94af3bf287b1f07e01424c8064736f6c63430006010033",
  "source": "pragma solidity ^0.6.0;\n\nimport \"./DappToken.sol\";\nimport \"@openzeppelin/contracts/math/SafeMath.sol\";\n\ncontract TokenSale {\n    uint256 public priceInWei;\n    uint256 public tokensSold;\n    DappToken public tokenContract;\n\n    using SafeMath for uint256;\n\n    address admin;\n\n    event Sell(address _buyer, uint256 _amount);\n    event SoldFor(address _buyer, uint256 _tokensSize, uint256 _forAmount);\n\n    constructor(DappToken _tokenContract, uint256 _priceInWei) public {\n        admin = msg.sender;\n        priceInWei = _priceInWei;\n        tokenContract = _tokenContract;\n    }\n\n    modifier onlyOwner() {\n        require(msg.sender == admin, \"only the admin can perform action\");\n        _;\n    }\n\n    function endSale() public onlyOwner {\n        address payable thisAddr = payable(address(this));\n        uint256 currentBalance = tokenContract.balanceOf(thisAddr);\n        require(tokenContract.transferFrom(address(this), address(tokenContract), currentBalance), \"should transfer all tokens to contract\");\n\n        address payable adminAddr = payable(address(admin));\n        selfdestruct(adminAddr);\n    }\n\n    function buyTokens(uint256 _numberOfTokens) public payable {\n        uint256 totalExpectedCost = priceInWei.mul(_numberOfTokens);\n        require(msg.value == totalExpectedCost, \"Should be the same as expected price in wei\");\n\n        address thisAddr = address(this);\n        uint256 balanceOfSales = tokenContract.balanceOf(thisAddr);\n        require(_numberOfTokens > 0, \"should be greater than zero\");\n        require(_numberOfTokens <= balanceOfSales, \"should be within available tokens remaining\");\n\n        // send tokens from token-sale to sender.\n        require(tokenContract.transfer(msg.sender, _numberOfTokens));\n\n        tokensSold += _numberOfTokens;\n\n        emit Sell(msg.sender, _numberOfTokens);\n        emit SoldFor(msg.sender,_numberOfTokens, totalExpectedCost);\n    }\n}\n",
  "sourcePath": "/Users/alexewetumo/Lab/etha/tokensale2/eth/contracts/TokenSale.sol",
  "compiler": {
    "name": "solc",
    "version": "0.6.1+commit.e6f7d5a4.Emscripten.clang"
  },
  "schemaVersion": "3.4.3",
  "updatedAt": "2021-10-20T16:18:32.546Z",
  "networkType": "ethereum",
  "devdoc": {
    "methods": {}
  },
  "userdoc": {
    "methods": {}
  }
}